:100000000C9434000C943E000C943E000C943E0082
:100010000C943E000C943E000C943E000C943E0068
:100020000C943E000C943E000C943E000C943E0058
:100030000C943E000C943E000C943E000C943E0048
:100040000C943E000C943E000C943E000C943E0038
:100050000C943E000C943E000C943E000C943E0028
:100060000C943E000C943E0011241FBECFEFD8E04C
:10007000DEBFCDBF0E946E000C9483000C94000084
:10008000BC0148E050E091E00AC05B9A5C98000037
:1000900000005C9A0000990F4150510941F0292F4E
:1000A00030E026233723232B81F75B98EFCF5D9A2F
:1000B000000000005D98089502C0000001970097BD
:1000C000E1F70895009749F028EE3DEF0000215038
:1000D0003109E1F70197C1F70895089514B817B8E9
:1000E00088E38AB924E030E088EE9DEF00000197B4
:1000F000E9F721503109C1F7C0E08C2F90E00E9450
:0A0100004000CF5FFACFF894FFCF64
:00000001FF
